:0400000080310B2818
:10000800803120007F08F0007008FF0009008A3165
:10001800B82A20005208013A031D242850081F3925
:100028000038031D24282200EC1720005108033A49
:10003800031D22282300C301C30A24282300C30167
:1000480020005208031D080050081F39023A031DFA
:10005800080054080F39003A0319080054080F39EA
:10006800EB0003306B020318080022006608203AF0
:10007800031D0800EC172000D41B522854080F3920
:10008800B43E8600013087000108EB006B082100B0
:10009800E300200054080F39B13E622820005408BC
:1000A8000F39603E8600013087000108EB006B08BD
:1000B8002100E300200054080F39AE3E86000130CD
:1000C80087000108EB006B082100E2006218732822
:1000D800FB302000EB006B082100E3057428631552
:1000E8002000D41B7F28210063082000EB0054085F
:1000F8000F39B43E8628210063082000EB0054081D
:100108000F39603E8600013087006B088100510876
:10011800033A031DAD282100630886008701811F6B
:10012800A3282000D41B9C2854080F39B13E9F28CF
:1001380054080F39AE3E8600013087008114210033
:100148006308860087010115630886008701811707
:10015800080004302000EB006B082100E306630868
:1001680086008701811FDA287F302000EB002100FC
:1001780063088600870120006B0881052100630859
:1001880086008701011705302000E5000030E600F1
:10019800210063082000E7000030E8000130E90092
:1001A8000030EA008A317F228031DF28210063088D
:1001B80086008701011704302000EB006B0821003E
:1001C800E306E218EC28630886008701811F1529D9
:1001D8002000D41BF32854080F39B13EF6285408E0
:1001E8000F39AE3E86000130870081103B30EB00AE
:1001F800210063088600870120006B08810505300F
:10020800E5000030E600210063082000E700003028
:10021800E8000130E9000030EA008A317F228031AD
:100228001F293B302000EB0021006308860087016E
:1002380020006B088105200054080F39983EEB0018
:10024800EC010E30EC3D6B082100E00020006C084A
:100258002100E100FE302000EB002100600886004C
:100268006108870020006B08810508002200E60865
:10027800031D4E293D008E019201163091009F30DA
:1002880097007B3092008E194B298E154729220042
:10029800E601E60A6608013A031D5F293D008E1A49
:1002A8005F29900192011214121602302100EA000F
:1002B8006A082200E6003D001019121D6C29FB3067
:1002C8002100EA006A083D009005893150218131FA
:1002D8003D008E1C72292000121108001018121CF3
:1002E800842985317E25813104302100EA006A089D
:1002F8002200E600FE302100EA006A083D00900571
:10030800101A121E8A298931152181313D00101FCA
:10031800B429121F9F2973302000E5000030E60041
:100328000030E7000030E8000130E9000030EA0062
:100338008A317F228131BF302100EA006A083D00FE
:1003480090058831AA208131230049080319AE2974
:100358000130C902C908031DB4298D31CE25813168
:100368003D00901A921EBB298931962181313D00AA
:100378009018921CD129FF302000E5007F30E6005C
:100388000030E7000030E8000130E9000030EA0002
:100398008A317F2281313D009301043022006602B8
:1003A8000318D9292000121108003D00921D312A96
:1003B8002100EC012A2A0F082100EA006A0822001D
:1003C800EF006F0C2100EA00EA0C6A0C0F39EB0011
:1003D8006B082300CF00F7302100EA006A083D00CF
:1003E800900522006F19FC2923004F08B13EFF2910
:1003F80023004F08AE3E860001308700010801390E
:100408002100EA000130EA0601086A06FE396A0698
:1004180081002300CF08031D152A8F31152781314C
:10042800252A72302000E5000030E6006F30E70032
:100438000130E8000030E9000030EA008A317F220C
:10044800813101302100EA006A08EC0704306C02AF
:100458000318312A3D009019DF29200012110800E5
:100468003D000E122200EC1B762A2300A21F4B2A05
:100478000230F60076082200E8002300C608031DB3
:10048800472A8C31B6242300C801C7010800083068
:10049800F6007C0A86008701760881005030F60055
:1004A8000030F7007C08023E860087017608C03FCE
:1004B8007708C13F0C30F6007C0886008701760873
:1004C80081007C088600870181170430F60022002D
:1004D8006008860087017608810060088600870129
:1004E800811708002000D01F8D2A2200E801E80AA1
:1004F8002300C508031D832A8C31B62482312300CA
:10050800C801C7012200E508031D08008D31CE256A
:1005180008000230F60076082200E8000830F600ED
:100528007C0A86008701760881005030F60000308A
:10053800F7007C08023E860087017608C03F7708EE
:10054800C13F0430F6007C088600870176088100E8
:100558007C088600870181172300C801C701220093
:10056800E508031D08008D31CE250800F60020306F
:10057800F2007208F7007108F2000130F235890BB9
:10058800C22A7608F3000130F335FF3E031DC82A5E
:1005980073357207F4000130F435FF3E031DD02A8D
:1005A8007435F5007508F707770886008701811309
:1005B800F108031DE42A7708F2007608B43EE82A19
:1005C8007708F2007608603E8600013087007208DE
:1005D800810077088600870101137708043E8600AA
:1005E80087010117080021001D0883391C389D0068
:0405F8009D14080046
:100600000034013400340A34003464340034E834F3
:10061000033410342734CC34523486340F34093444
:10062000023443340034023401340034C0343234F0
:100630000934043400340034013402340234013407
:1006400000340534243400341034013404342434A8
:1006500002340234053424340634003401340534C1
:100660002434013400340134073405348134033434
:1006700008340034023409340434013400340234C0
:100680000A340034003400340734053402340234B0
:1006900040340034003407340534823402344034AA
:1006A00000340034343403344D34003469340034BD
:1006B00063340034723400346F34003463340034F3
:1006C0006834003469340034703400342034003429
:1006D00054340034653400346334003468340034F6
:1006E0006E3400346F3400346C3400346F340034B2
:1006F0006734003479340034203400344934003411
:100700006E340034633400342E3400343434033413
:10071000433400344434003443340034203400344F
:1007200052340034533400342D3400343234003425
:10073000333400343234003420340034453400344F
:100740006D340034753400346C340034613400345A
:1007500074340034693400346F3400346E3400343F
:100760002034003444340034653400346D340034B3
:100770006F34003412340134003402340234003453
:1007800000340834D83404340A34003400340134DA
:1007900001340234003401340434033409340434A1
:1007A0004134443443345F344E344E343D34253484
:1007B00075342C3420344C344534563445344C3460
:1007C0003D342534753420340A340D34003421008E
:1007D000E900E201E30165302000E9006908210039
:1007E000E10020006408E40A83310A008331E90053
:1007F00069082100EA00EA080319B52C6A08253ABD
:100800000319172C6A082000E900210069088600F6
:10081000023087002000690881000130E900690882
:100820002100E9070130E2070030E33DF12BE00150
:10083000202CC0302000E90069082100E0042F2CA2
:1008400020006408E40A83310A0084312100EA00B0
:10085000003A0319B52C753A0319192CF12B6108CC
:1008600086008701403FE400413FE5000230200060
:10087000E90069082100E107EA01EA0A6A08053A85
:100880000319642C01308400833085006A358407A5
:100890000318850A003F2000E900013FEA006A08CA
:1008A00021006502031D582C200069082100640204
:1008B000031C642C01302000E90069082100EA07CC
:1008C0006A08053A031D422C6A082000E9006908FD
:1008D0002100E800FF302000E90069082100E80756
:1008E0006808FF3A0319F12B0A302000E0000030BD
:1008F000E1000130840083308500210068358407E1
:100900000318850A003FF100013FF2006508F40179
:10091000F4076408F301F3078A314922833172082E
:100920002000E301E3077108E201E2078931BC21FD
:10093000833120006008303EE90069082100EA00A8
:100940006A082000E900210069088600023087005B
:100950002000690881000130E90069082100E907E9
:100960000130E2070030E33D6A2C6908860002305E
:100970008700810163082000E501E5072100620886
:100980002000E401E4070800230042080319D62CE4
:10099000420886008701010D010D0139F900FA01B5
:1009A00079082000E0007A08E100D92C2000E0015D
:1009B000E10161086004031D080021006E08033A8C
:1009C0000319EE01EE08031908006E08023A031D30
:1009D000FD2CF101F10A0030F2000030F300F401C7
:1009E00002308B312D23F90079082300C200033037
:1009F000F90079082100EE0008006E08013A031D95
:100A00000800413022006702031C082D40300A2DE7
:100A100022006708F90079082000E3006303FF3A29
:100A200022006707F9007908E700A030F90079088B
:100A30002300BD0020006308F9007908E2002300CC
:100A4000CC0803193B2D572D23003F0886000230A8
:100A500087000108F9003D088600870179088100B8
:100A60000130F9007908BD070130F9007908BF07A6
:100A700001302000E2022000E20803195B2D242D42
:100A800023003F088600023087000108F9003D0876
:100A900086008701790881000130F9007908BD07D7
:100AA0000130F9007908BF0701302000E202200080
:100AB000E208031D402D2200E708031D6B2D2000D6
:100AC0006308403A031D662D0230672D0330F9009C
:100AD00079082100EE00F101F10AA030F2000030A7
:100AE000F30020006308F9007908F40002308B312C
:100AF0002D23FA007A082300C200080021001211F9
:100B00003D009301900198010E30F4009930F300FC
:100B1000F5010230750203189E2D730886007408D3
:100B2000870081010130F3070030F43D0130F1000E
:100B30007108F50702307502031C8D2D16303D003B
:100B400091009F3097007B309200F6010C307602C6
:100B50000318C32D7608F1000130F135FF3E031D67
:100B6000AD2D7135203E860087010030C03F00303A
:100B7000C13FC23FC33F0130F1007108F6070C309E
:100B80007602031CAA2D3D000E1796010E120E13BD
:100B9000F730F100710890052200EC012300A2015A
:100BA000A301A4013D009019C82D0130F100710886
:100BB0002300C7000130F1007108C800C501C6015B
:100BC000C401F601033076020318062E7608603E53
:100BD00086000130870081017608B43E860001302E
:100BE000870081017608AE3E8600013087008101D2
:100BF0007608B13E86000130870081010130F100A6
:100C00007108F60703307602031CE62D2830F10048
:100C100071082200E00016303D0098005030F100CD
:100C20000030F20071082000A2007208A300083012
:100C3000A1000430F1007108A000A0172300EA0110
:100C40000030AD000030AC000030AB000030AA0036
:100C5000CA012200E601080021006F088600870112
:100C6000413FF6007608F300F401740823002402E3
:100C7000031D3C2E730823020318422E2308F300A1
:100C80007308F6007608F300F4017308A3027408F1
:100C9000A43BF501760875020318632E7508583ECB
:100CA000860087010108F3002008860001308700D4
:100CB000730881000130F3007308A0070130F300CE
:100CC0007308F5074A2E0330A03E860001308700E6
:100CD0001600010403199D2E0830F3007C0A8600DB
:100CE0008701730881005830F3000030F4007C085D
:100CF000023E860087017308C03F7408C13F21008F
:100D00006F0886008701011B912E4830F3007C0894
:100D100086008701730881007C088600870181179F
:100D200008000830F3007C08860087017308810002
:100D30007C0886008701811708000830F3007C0AD0
:100D400086008701730881005030F3000030F40002
:100D50007C08023E860087017308C03F7408C13FCB
:100D60000430F3007C0886008701730881007C084A
:100D7000860087018117230025080319C22E250844
:100D80008631C12E2300A2132200E508031D0800AE
:100D90008D31CE2508002200EC170E302000ED002A
:100DA0009930EC00EE0102306E020318E82E6C0858
:100DB00086006D08870081010130EC070030ED3DB1
:100DC0000130EB006B08EE0702306E02031CD72ED9
:100DD0002030F1000030F2000030F3000030F40069
:100DE0003030F5000030F6008731E12786313D00D4
:100DF0000E172000EF0103306F020318132F6F0846
:100E0000AE3E86000130870081016F08B13E86004A
:100E10000130870081010130EB006B08EF070330E0
:100E20006F02031CFF2EE830F1000130F2000030A9
:100E3000F3000030F4000230F5000030F600873196
:100E4000E12786313D000E1328302000EB006B08AF
:100E50002200E00020302000EB006B082100EF00B2
:100E60006F082000EB006B08FC005208EB006B08D9
:100E70002300EA00EA08031D442F10302000EB0095
:100E80006B082200E600080001302000E500003079
:100E9000E600EA30E7000130E8000130E900003008
:100EA000EA008A317F2220302000EB006B0822000C
:100EB000E60008002300D008031D612F8831F820C8
:100EC00087319731F5278731003A0319D42F003045
:100ED0000800F101F10A00308831C2208731230077
:100EE000D801D80A9731EA278731DF2FF101F10ABB
:100EF00000308831C22087310230F90079082300A0
:100F0000D8009731EA278731DF2F9731CA278731F9
:100F1000F9007908F10001308831C22087310330AF
:100F2000F90079082300D8009731EA278731DF2FAD
:100F3000F10100308831C22087318231F7228731B8
:100F40000430F90079082300D8009731EA27873167
:100F5000DF2F9731CF2787310038031DB12F0430A1
:100F6000B22F05302000E0000030E1006008CF2FF4
:100F700088316E208731F9007908F5009731C7274D
:100F800087318931EB2187310038031DC92F0230A9
:100F9000CA2F01302000E2000030E3006208F900AF
:100FA00079082300D800DF2F23005808840006307A
:100FB00004020318DF2F883104351A3E8200013005
:100FC00008007208F901F9077108F801F807013003
:100FD000F5020030F63BFF307606031DF12FFF309F
:100FE0007506031908007308F70078088600790869
:100FF0008700770881000130F8070030F93DE72FBE
:101000008D312E2D8D31312D8D316B2D8D31312D39
:101010008D316B2D8D31152D8D311E2D8D31502D36
:101020008D31242D8D31212D8D31342D8D31402D5B
:101030008D316B2D8731692F8731762F8731852F41
:0C1040008731982F8731A92F8731B82FF6
:10104E00F4007408F30073082300D3007208F30051
:10105E007308D4000800F100372821000E11080093
:10106E007108003A03193F28013A031934283F2822
:10107E000800F100452822000E1108007108003A00
:10108E0003194D28013A031942284D280800F10092
:10109E00532822000E1508007108003A03195B2828
:1010AE00013A031950285B28080042347534743411
:1010BE0074346F346E342034703472346534733457
:1010CE007334653464342E340D340A3400340130F4
:1010DE00F10071082300D70727305702003003189C
:1010EE000130F2007208F300273057020318D701BF
:1010FE00730808008A31F2222300E5010830FB0054
:10110E007B08E700E6010030E4000030E300253004
:10111E00E2008030E100CB010800F3002100EE0870
:10112E00031D08007308F20072082300BF00710847
:10113E00F20072082200E7002300CC01CC0A210045
:10114E00EE01EE0A080001302300AA070030AB3D85
:10115E000030AC3D0030AD3DC408031D0800013029
:10116E00F1007108CA07CA08031D0800FF30F1001C
:10117E007108CA000800F3000030F308031D0130A7
:10118E00F200F20E22000E087206EF3972068E0081
:10119E000030F108031D0130F200F20EF20D0E08C0
:1011AE007206DF3972068E000800F200EC28FC3061
:1011BE0021009900903027009B00013088313220A9
:1011CE00883101309731E02708007208003A031980
:1011DE00DE28013A0319F728033A0319F728F728EE
:1011EE0008002300D001D00A21008E150E128E1297
:1011FE0023008C018E1522000E128E1223000C126B
:10120E0021000C1611131D149E131E088F39603801
:10121E009E00FC309E058F309F0508003D00121584
:10122E00EF302000EB006B083D0090058E1423007C
:10123E00C401C40ACA0175302000E5000030E60082
:10124E000030E7000030E8000030E9000030EA002E
:10125E008A317F22080000308831DC2089318531C7
:10126E007E25893187315A2789312100ED006D089D
:10127E002300D20081313A218931203022006602CA
:10128E00031C39293D008E1839298C31632489318C
:10129E0039292300C40174302000E5000030E60037
:1012AE000030E7000030E8000030E9000030EA00CE
:1012BE008A317F2289313D008E101211101D6E2948
:1012CE00FB302000EB006B083D00900565292300E4
:1012DE00CA0108002000E200781D7A29F101620897
:1012EE008231BA228931F81C8229F101F10A2000DB
:1012FE0062088231BA2220006208983EF900FA0193
:10130E000E30FA3D7908E0007A08E1007808F9001D
:10131E0060088600610887007908810008003D009A
:10132E00181CB72921006F08860087010108803A32
:10133E00031DB52922006008860087010108843A42
:10134E00031DB5290C30F10021006F0886008701BE
:10135E00710881006F088600870181173D00181003
:10136E00DF30F1007108900508002000610860046C
:10137E000319E429FA01FA0AE11BCF290130E035FD
:10138E00E10D890BC6290130F9007908FA07C32946
:10139E0061086302031DD52960086202031CDB2964
:1013AE006008E2026108E33B0130E136E00C890B94
:1013BE00DC290130FA02031DCF296308E101E107A0
:1013CE006208E001E0070800F80022006908203EEC
:1013DE008600023087000108F6007608F1007808D2
:1013EE00F7007708F20069088831272089317808DC
:1013FE00F60022006908203E86000230870076083B
:10140E0081000130F6007608E907273069020318DB
:10141E00132A75080319142AE9016908003A0030E5
:10142E0003190130080022006808023A031D222A1F
:10143E0086312C2608002200E8012300C108031D76
:10144E00472A0830F7007C0A86008701770881005A
:10145E005030F7000030F8007C08023E860087010D
:10146E007708C03F7808C13F0C30F7007C08860033
:10147E008701770881007C088600870181170800A4
:10148E00C1010800F701F801720871040319782AE6
:10149E00F601F60AF21B5D2A0130F135F20D890BC9
:1014AE00542A0130F5007508F607512A0130F73538
:1014BE00F80D890B5E2A72087402031D682A7108E2
:1014CE007302031C6F2A7108F3027208F43B77143F
:1014DE000130F236F10C890B702A0130F602031D31
:1014EE005D2A7808F201F2077708F101F10708008A
:1014FE008F2A8C31142408008C31142408008C316E
:10150E00142408008831812008008D316C250800D4
:10151E0020006608003A0319982A7F3A0319B22A66
:10152E00B72A6508013A0319892A033A0319B72A1B
:10153E00013A03198C2A063A0319B72A773A031986
:10154E00B72A013A0319802A073A0319862A013A63
:10155E000319832AB72A6508FF3A0319B72AB72A4F
:10156E000800FC012100EE01EF0160308400013023
:10157E00850010309731DA278A31A030840001308F
:10158E0085004B309731DA278A31203084000230C3
:10159E00850031309731DA278A31A030840002304D
:1015AE00850040309731DA278A31203084000330AD
:1015BE00850040309731DA278A315C3084008830DC
:1015CE008500513086000230870012309731D427C3
:1015DE0020008931322900302300E4000030E3007E
:1015EE004B30E2000030E100E501E601083020005A
:1015FE00E30063082300E700CD011A302000E3006A
:10160E006308F8000130893171218A311E302000C3
:10161E00E3006308F8000230893171218A31F1014B
:10162E002030F2000130F30040302000E300630868
:10163E00F40002308B312D232000E40064082200D8
:10164E00E4002300C2012100EE010800F70071083A
:10165E000319342B7708603E362B7708B43E86008C
:10166E00013087000108F5007508F800F808031D21
:10167E00422B00300800FF307205F5007F307305F5
:10168E00F6007808023E860087017508C03F76088E
:10169E00C13F7408F500780A86008701750881003D
:1016AE004030F500780886008701750881057808B6
:1016BE0086008701811578088600870181177108D9
:1016CE0003196E2B0430F5007708603E722B043040
:1016DE00F5007708B43E8600013087007508810654
:1016EE00780808002000D8010030D900AD2B220068
:1016FE00EC1723004308013A031DB92B2000D81420
:10170E00B92B2200EC17B92B2200EC172000D41BAA
:10171E00942B54080F39B43E972B54080F39603E62
:10172E008600013087000108F1007108F20072088E
:10173E0086008701811FB92B720886008701011D63
:10174E00B92B0130F1007108D800B92B50081F39A0
:10175E00003A03197E2B013A0319882B033A031919
:10176E008B2BB92B2200EC1F08005830EA000030FA
:10177E00EB006C140230F1007108ED00080023003C
:10178E00D5012200E5012300C501C601C1012200D9
:10179E00E8017F302100E500220060088600870105
:1017AE002100650881050430E50065082200E00689
:1017BE007F302100E50022006008860087012100AD
:1017CE00650881050430E50065082200E0067F30DB
:1017DE002100E5007C08860087016508810522004E
:1017EE00EC01ED01EE012300A201A301A4018D3154
:1017FE000D258B3103302000E5000030E60000306F
:10180E00E7000030E8000030E9000030EA008A31DD
:10181E007F228B318231342208003D008E1C572CE2
:10182E00013088314020080001302300370638048B
:10183E00031D262C013088314E208C315D2C4B300F
:10184E00230037063804031D312C01308831402027
:10185E008C315D2C0030230038029730502C013033
:10186E00230037063804031D412C013088314E20E9
:10187E008C315D2C3230230037063804031D4C2C7E
:10188E000130883140208C315D2C0330230038022A
:10189E00B73003193702031C5D2CB701B8015D2C5C
:1018AE0022006608203A03191B2C362C0130230027
:1018BE00B7070030B83D0800230052080319B32CB7
:1018CE0022006308203E86000230870001082400B3
:1018DE00E30063082000EC00D0302400E30063082E
:1018EE002000E400220063082400E400E5016408FF
:1018FE002000E500240065082000E6006C082400A6
:10190E00E600E70166082000E700240067082000D3
:10191E00E800A0308331E7238C31200064082400D6
:10192E00E80068082000EB002100EE08031DB32C30
:10193E0020006B082400E3006308F100A03088311A
:10194E0094208C3101302400E30063082200E30769
:10195E00273063020318E3018431C42408002300F6
:10196E00C501C60122006808023A031DDD2C0830AD
:10197E00F4007C0A86008701740881005830F40058
:10198E000030F5007C08023E860087017408C03FD7
:10199E007508C13F4830F4007C0886008701740842
:1019AE0081007C0886008701811708006E082000E0
:1019BE005702031DE62C22006D0820005602031864
:1019CE00F12C57082200EE01EE07200056082200E7
:1019DE00ED01ED078E31A4268C315830F400003025
:1019EE00F50022006008023E860087017408C03FA1
:1019FE007508C13F4830F4006008860087017408FE
:101A0E008100600886008701811708002000500EB3
:101A1E00890C0339003A031D0800602D2200EC17D3
:101A2E0008302100E40064082200E60008008F312F
:101A3E00872708008631CB260800EA302200EA000C
:101A4E000130EB006C14ED01ED0AEC1708008B3140
:101A5E007923080080310D20080020005408E83E4C
:101A6E002200EA000130EB006C14ED01ED0AEC17D8
:101A7E0008002200EC17200052082100E40020008C
:101A8E005408E83E8600013087002100640881007A
:101A9E00080002302000E5000030E6000030E700CC
:101AAE000030E8000030E9000030EA008A317F2281
:101ABE0008002000510884000D30040203180800AD
:101ACE0088310435003E82000800200050081F397E
:101ADE00013A031D0800500E890C0339013A031D0B
:101AEE00080054080319BB2D5408013A031D0800C1
:101AFE00BB2DD9302200EA000130EB000830ED009A
:101B0E000030EE006C14EC170800D9302200EA0009
:101B1E000130EB00EC170800200057082300A40149
:101B2E00A407200056082300A301A307E130F1000B
:101B3E007108A000A501A2170800E1302200EA00FA
:101B4E000130EB000730ED000030EE00C130F10047
:101B5E007108EC00080020005208F1007108230003
:101B6E00CE002200EC17080020005108003A03199D
:101B7E00802D013A03198C2D213A0319932D013A28
:101B8E000319A42D033A0319B22DCD2D08002300FD
:101B9E00C708031D08000130F1007108C700C8080E
:101BAE00031D08000130F1007108C800220068080A
:101BBE00023A031DF22D600A86008701810148302A
:101BCE00F1006008860087017108810060088600B8
:101BDE008701811708006808013A031D08002300D9
:101BEE00C1010830F10021006F0A860087017108DB
:101BFE0081005030F1000030F2006F08023E860086
:101C0E0087017108C03F7208C13F0430F1006F08B0
:101C1E0086008701710881006F0886008701811791
:101C2E002300C101C10A0830F1007C0A8600870139
:101C3E00710881005030F1000030F2007C08023E45
:101C4E00860087017108C03F7208C13F8030F100E5
:101C5E007C08860087017108810008002200600858
:101C6E00860087010030011B0130F6000430F400BD
:101C7E007408E0066608083A031D542E2000520828
:101C8E007F393D009600160803194F2E1030502E46
:101C9E000430F40074082200E6006808013A031DBF
:101CAE00962E5830F4000030F5006008023E860093
:101CBE0087017408C03F7508C13F8E31A4268E314E
:101CCE0023005508023A031D792E0430F400220039
:101CDE00600886008701740881006008860087010D
:101CEE0081170800F608031D892E4830F4002200E3
:101CFE0060088600870174088100600886008701ED
:101D0E00811708000830F400220060088600870161
:101D1E00740881006008860087018117080023007F
:101D2E00A21FA12E250803199F2E25088E319E2E47
:101D3E002300A2132200E80108000830F100710808
:101D4E00F300003022006E02083003196D020318F2
:101D5E00C32E6D08F1007108F3002300D508031D92
:101D6E00BB2ED501D50AC32E5508013A031DC32E2D
:101D7E000230F1007108D5007308F100F20171080C
:101D8E002200ED027208EE3B7308F100600A860035
:101D9E008701710881005830F10071082300D100CD
:101DAE0022006C1CF42E112F22006A0884006B088E
:101DBE0085000008F1002300510886008701710894
:101DCE00810001302200EA070030EB3D0130F100C6
:101DDE0071082300D1070130F302F308031908003C
:101DEE00DB2E22006A0884006B0885000008F100D3
:101DFE0023005108860087017108810001302200FE
:101E0E00EA070030EB3D0130F10071082300D107E5
:101E1E000130F302F30803190800F82E2D302100CB
:101E2E00E60066082300C90022006F08FD39031D75
:101E3E007B2F6F363F392100E6000130E635FF3E3D
:101E4E00031D252F6635203EE7006708EF006F085B
:101E5E00E6006608FC000430E6006608FC066F0823
:101E6E0086008701010C890C0F390D3A031D782F5E
:101E7E00E901083069020318692F6F08023E8600D7
:101E8E008701403FE600413FE7006608860067088D
:101E9E0087000108E8006908503E8600870168083F
:101EAE0081006F08023E86008701013081074131B3
:101EBE000318810A0130E6006608E9070830690256
:101ECE00031C442F5030E6000030E7006F08023E3E
:101EDE00860087016608C03F6708C13F8B31C62365
:101EEE0008008A311A220800FD3022006F052100F9
:101EFE00E6006608043A031D08008E3135260800F8
:101F0E0020005008803A031D0800C030F10071080F
:101F1E002200EC00F32FBA302200EA008330EB00EF
:101F2E001230ED000030EE00080020005208031DB4
:101F3E00CC2F0E308400833085005208840703189E
:101F4E00850A003F2200EA008330EB006B08F200A6
:101F5E006A08F10002307107840072080318720AD1
:101F6E0085000008F3007308ED006B08F2006A08A4
:101F7E00F10003307107840072080318720A85009D
:101F8E000008F3007308EE0008002200EC010800C0
:101F9E000330200052020318ED2F0B3084008330E3
:101FAE008500520884070318850A003F2200EA00C4
:101FBE008330EB006A0884006B0885000008F1008E
:101FCE00F2017108ED007208EE0008002200EC012B
:101FDE0008002200EC01080020005308013A031902
:101FEE00922F033A03199C2F013A0319CF2FF02F8A
:021FFE000800D9
:102F8E0021001C08080022000E0E890C01390800D1
:102F9E00003021009D1C01300800FE0012001E00B2
:102FAE00FE0BD52F0034640080010131890BDB2F1D
:102FBE000034F1007108003A0319E92F013A0319A0
:102FCE00E92FE92F08002300D601D60A2100951219
:102FDE0095158B120B11200095010800F1012300AD
:102FEE005608031D0B19FD2FF101F10A7108D600C9
:022FFE000800C9
:020000040001F9
:04000E00E4CFCFDF8D
:00000001FF
