:04000000803106281D
:100008008031090080310828EE01EF01E0308400DA
:100018000030850010308C31242480316030840019
:100028000130850010308C3124248031A0308400C8
:10003800013085002F308C31242480312030840019
:100048000230850040308C3124248031A030840077
:100058000230850040308C312424803120308400E7
:100068000330850040308C312424803112308400E4
:100078008C308500CF3086000130870012308C31FB
:100088002A248031200048280030A5228031BC2253
:10009800803135238031203021006502031C4D2832
:1000A8003D008E184D285A2080314D283C302000C4
:1000B800E0006130E101F5006030C6208031003A8F
:1000C80003196E28200060082300AF002000610893
:1000D8002300B000013020228031013A031D83281B
:1000E8002200E808031D85282100E708031D85284C
:1000F800CF30312280312200E801E80A8528220029
:10010800E8012100E708031DC5284030F800203029
:10011800532280312000E200E301AB286308A03EAF
:100128008600023087006308203E84000230850084
:100138000008A9286308A03E8600023087006308EB
:10014800203E840002308500000A8100E30A62082C
:1001580063020318BD286308203E8600023087002A
:1001680001080A3A03199228073A031992289E2887
:10017800AA2862080319C5286208F000A030912255
:100188008031F32DFA002300B201B1017508860011
:10019800870181017A0886008101BC08031DD628E1
:1001A80004228031F00122006D08031DDC28E528B7
:1001B80080310B190C288031E32880310C28F0019C
:1001C800F00A7008ED00003A031D0034EA290030F7
:1001D800F001F00AF2000030F208031D0130F100CE
:1001E800F10E22000E087106EF3971068E000030FC
:1001F800F008031D0130F100F10EF10D0E08710633
:10020800DF3971068E002300BD01BD0A2200ED0111
:10021800ED0A2100951295158B120B1120009501FE
:10022800F5290030F001F00AF2000030F208031D51
:100238000130F100F10E22000E087106EF39710647
:100248008E000030F008031D0130F100F10EF10DB1
:100258000E087106DF3971068E0002302300BD00DA
:100268002200ED01ED0A2100951295158B120B1154
:1002780020009501F52922000E0E890C0139F000A5
:100288000130F2000030F208031D0130F100F10ED8
:1002980022000E087106EF3971068E000030F00852
:1002A800031D0130F100F10EF10D0E087106DF3962
:1002B80071068E0003302300BD002200ED01ED0A17
:1002C8002100951295158B120B1120009501F52927
:1002D8000030F001F2000030F208031D0130F10097
:1002E800F10E22000E087106EF3971068E000030FB
:1002F800F008031D0130F100F10EF10D0E08710632
:10030800DF3971068E0021001D0883391C389D00D5
:100318009D1404302300BD002200ED01ED0A2100E8
:10032800951295158B120B1120009501F5290030B7
:1003380021009D1C01300038031DA4290430A52983
:100348000530F600F701E72940302200EE0A6E0278
:10035800003003180130F00040306E02031CB7294A
:10036800B629B729EE017008F30021001C08F40033
:100378006908203E8600033087000108F0007408F1
:10038800F1006908203E8600033087007408810068
:10039800E90A403069020318D729D329D7297308F5
:1003A800031DD729D829E9016908003A0030031943
:1003B80001300038031DE3290230F800E529F8016F
:1003C800F80AF90178082300BD00F52923003D0843
:1003D8008400063004020318F52988310435EA3E02
:1003E80082007A0886008701230031088100750899
:1003F8008600320881000030B108031D0130080072
:10040800BC01BC0A21008E150E128E1223008C012D
:100418008E1522000E128E1223000C1221000C16CB
:1004280011131D149E131E088F3960389E00FC306E
:100438009E058F309F050800F000282A0030200014
:100448008C1D0130080000347008003A0319272A6F
:10045800013A0319222A272A0800F1006708031D18
:100468000800F2017108F000F20A7208FF3A031955
:10047800452A7008860001308700F00A8108031DAC
:10048800382A71082300B5000130B600720822002E
:10049800E9002300BB012100E701E70A0800FA0090
:1004A800E60163080319602A630886008701010DC5
:1004B800010D0139FB00612AFB01FC017C087B046A
:1004C800031D8F2A630A8600870178080102031832
:1004D800712A63088600413FF800E6017808660241
:1004E8000318852A66087A07F90086000230870013
:1004F8006608203E84000130850000088100E60A75
:10050800722A2030F001F1000130F2004030F3008F
:1005180002306F26E30066080800F1002100E708B2
:10052800031D080071082300B5000230B6007008EA
:100538002200E9002300BB01BB0A2100E701E70A0A
:100548000800F100003A0319B02A013A0319BB2A3E
:10055800033A0319BB2ABB2AFC30210099009030CA
:1005680027009B0001307027803101307E2F080062
:10057800210012113D009301900198010E30F30003
:100588009930F200F401720886007308870081012F
:10059800F20A0319F30A0230F40A7402031CC72A88
:1005A80016303D0091009F3097007B309200F50196
:1005B800750809070907203E860000308701C03FFB
:1005C800C13FC23FC33F0C30F50A7502031CDC2A49
:1005D8003D000E1796010E120E1390112100EC012A
:1005E8002300A201A301A4013D009019F12A0130C2
:1005F8002200E500E600E301E4012300B901F5016A
:100608007508E03E8600870181017508AC3E8600CA
:100618000130870081017508A63E860081017508B2
:10062800A93E860003308101F50A7502031C042BDC
:1006380028302100E00016303D0098005030F000CE
:10064800F1012000A2007108A3000830A1000430C5
:10065800A000A0172200EF012300BA012100E50144
:1006680008002100E508031D492B3D008E01920179
:10067800163091009F3097007B3092008E19462BE0
:100688008E15422B2100E501E50A6503031D562B53
:100698003D008E1A562B9001920112141216023048
:1006A8002100E5003D001019121D5D2B1011F723E4
:1006B80080313D008E1C632B200012110800101899
:1006C800121C6C2BBC2280310430E5003D00101058
:1006D800101A121E712BE72380313D00101F8F2B3B
:1006E800121F822B73302000E0000030E101E2018C
:1006F800E301E401E40AE501582580313D001013C7
:10070800AD26803122006708031DE703E708031DB3
:100718008F2BD22680313D00901A921E952BB5263C
:1007280080319018921CA62BFF302000E0007F300B
:10073800E100E201E301E401E40AE5015825803122
:100748003D009301043021006502031C602B3D002D
:10075800921D602B2300E1013D00901D602B0F08C6
:100768002100EF006F0C2000ED00ED0C6D0C0F392F
:100778002200EA003D00901121006F19C72B2200CA
:100788006A08A93ECA2B22006A08A63E86000130E4
:1007980087008106EA08031DD42B1F278031E02B30
:1007A80072302000E000EF30E101E2000030E300A9
:1007B800E401E5015825803123000430E10A610293
:1007C8000318602BB02B121510128E1423007530ED
:1007D800B901B90ABA012000E000E101E201E30130
:1007E800E401E501582D23007430B9012000E00030
:1007F8000030E101E201E301E401E501582580311F
:100808003D008E101211101D0B2C1011072C230007
:10081800BA0108002200EC012100E4012200E301F2
:10082800E4012300B7012100E801600886000430D4
:1008380087018113E0066008860004308113E00612
:1008480020006F08860081132100EC01ED01EE0104
:100858002300A201A301A4013E248031033020001B
:10086800E0000030E101E201E301E401E50158257F
:100878008F31032F2000500E890C0339031D080007
:10088800510884000D30040203180800873104352C
:10089800E43E8200080021000830EC17E50008005B
:1008A8008A31DF2A8A31672A6F302100EA00013055
:1008B800EB006C14ED01ED0AEC1708008B31D02B1E
:1008C8007E2C5408CD3E2100EA0001305C2C21002A
:1008D800EC1720005408CD3E8600013087005208EE
:1008E800810008000230E000E101E201E301E401D7
:1008F800E501582D2000520B922C50081F39031D7A
:10090800922C2100EC1720005108033A031D902C6B
:100918002300B801B80A922C2300B801200052081D
:10092800031D080050081F39023A031D0800540827
:100938000F390319080054080F39FA0003307A02F6
:100948000318080021006508203A031D0800EC1769
:100958002000D41BBC2C54080F39AC3E8600013053
:1009680087000108E90054080F39A93E8600C92C00
:1009780054080F39E03E860087010108E900540851
:100988000F39A63E8600013087000108E800681884
:10099800CF2C6911D02C6915D41BD92C54080F39C8
:1009A800AC3E860001308700DE2C54080F39E03E4B
:1009B80086008701690881005108033A031DFE2C4F
:1009C800690886008701811FF62CD41BEF2C540878
:1009D8000F39A93EF22C54080F39A63E8600013083
:1009E8008700811469088600870101156908860057
:1009F800811708000430E90669088600870169083C
:100A0800811F162D86008113860005300117E0002E
:100A1800E1016908E200E301E401E40AE50158257F
:100A28008031192D86008701011704302000E9065E
:100A3800E818232D690886008701811F412DD41BE2
:100A4800292D54080F39A93E2C2D54080F39A63EDC
:100A58008600013087008110690886003B308701D5
:100A680081050530E000E1016908E200E301E401E5
:100A7800E40AE50158258031462D690886003B3097
:100A880087018105200054080F39983EFA000E307E
:100A9800FB01FB3D7A08E6007B08E7006608860054
:100AA80067088700011008006108003A0319642DDF
:100AB8007F3A0319712D762D872F772D8B31422B95
:100AC8006008FF3E031C0800840075300402031808
:100AD800080088310435003E82006008FF3A031997
:100AE800762D762D0800862523000830CA01CC0013
:100AF8002530CB01C901C801C7008030C6002200DB
:100B0800E801080023004B30C901C801C7000830BC
:100B1800C601CA01CB01CC0021001A30E601F4005D
:100B28000130AB2580311E30F4000230AB25803116
:100B38002030F001F1000130F2004030F3000230C3
:100B48006F26E3002200E2012100E7010800F90016
:100B5800741DB12DF001CA258031F41CB72DF001A8
:100B6800F00A7908CA257908983EF5000E30F60192
:100B7800F63D7508F7007608F8007408F500770860
:100B8800860078088700750881000800F200203088
:100B9800F3007008F100F1357208090709077107B9
:100BA80009070907F3077308860087018113F0080E
:100BB800031DE42D7208AC3E860001308700E82D45
:100BC8007208E03E8600870173088100730886007A
:100BD800870101137308043E8600011708002200EC
:100BE80062080319FF2D620886008701010D010DB7
:100BF8000139F800002EF801F90179087804031D7D
:100C0800080021006708033A0319E701E7080319F8
:100C180008006708023A031D1E2E0230F001F00A90
:100C2800F101F201F3016F262200E20003302100F6
:100C3800E7000800670B0800413022006902031C26
:100C4800272E4030282E6908FB00E902A030230037
:100C5800B3007B08FA00BB080319412E532E330852
:100C68008600870135088400360885000008810061
:100C7800B30AB50A0319B60AFA03FA080319562E75
:100C8800332E33088600870135088400360885002E
:100C980000088100B30AB50A0319B60AFA03FA086C
:100CA800031D452E2200E908031D632E7B08403AE8
:100CB800031D602E0230612E03302100E700A030B2
:100CC800F001F00AF100F2017B08F30002306F2610
:100CD8002200E2000800F60070080319782E760852
:100CE800E03E860087017D2E7608AC3E8600013006
:100CF80087000108F700F708031900347108F400A9
:100D08007F307205F5007708023E86008701740877
:100D1800C03F7508C13F770A8600730881007708CD
:100D2800860040308105770886008115770886009F
:100D3800811770080319A42E7608E03E8600A92EB4
:100D48007608AC3E860001308700043081067708BB
:100D580008002300B9080319BA0F0800FF30BA00C9
:100D68000800181CD02E20006E0886008701010894
:100D7800803A031DCE2E2100600886000108843ABF
:100D8800031DCE2E20006E0886000C3081006E08F0
:100D9800860081173D001810901208002200E5080F
:100DA800031D08000130E500E608031D0800E60001
:100DB80021006808023A031DED2E600A86008701AB
:100DC800810160088600483081006008860081172C
:100DD8000800680B08002300B70120006E0A86008F
:100DE8000830870181005030F000F1016E08023EA2
:100DF80086007008C03F7108C13F6E088600043045
:100E080081006E08860081172300B701B70A200009
:100E18006F0A8600083081005030F000F1016F0839
:100E2800023E86007008C03F7108C13F6F08860007
:100E38008030810008002D30E70021006F08FD395F
:100E4800031D672F6F363F3909070907203E200029
:100E5800EE00EF000430EF066E0886008701010CF3
:100E6800890C0F390D3A031D652FEC016C08503EB3
:100E7800860087016E08023E84008501003FEA0073
:100E8800013FEB006A0884006B08850000088100B8
:100E98006E08023E86000130810741310318810A3D
:100EA8000830EC0A6C02031C3A2F5030EA00EB01C0
:100EB8006E08023E860087016A08C03F6B08C13F82
:100EC8000E2C8931C629FD306F052000EA00043A4E
:100ED800031D08008E31A52EF000752F21000E117C
:100EE80008007008003A03197D2F013A0319722F80
:100EF8007D2F0800F000003A0319862F013A0319E4
:100F0800862F862F08003D008E1CBE2F0130C92F6A
:100F1800220060036104031D952F0130D72780311B
:100F2800C42F60084B3A6104031D9E2F0130C92766
:100F38008031C42F00306102973003196002031C0E
:100F4800C42FE001E101C42F220060036104031DE6
:100F5800B12F0130D7278031C42F6008323A61049D
:100F6800031DBA2F0130C9278031C42F0330610215
:100F7800B730A12F21006508203A03198C2FA82F1C
:100F88002200E00A0319E10A0800F000CE2F22002F
:100F98000E1108007008003A0319D62F013A0319F8
:100FA800CB2FD62F0800F000DB2F0E150800700895
:100FB800003A0319E32F013A0319D92FE32F080048
:100FC8008431622C8431642C84314E2C8431642C1D
:100FD80084314E2C84314F2C8431542C8431762C1E
:100FE8008431582C8431562C8431652C84316B2CF7
:040FF80084314E2CC6
:101000008531612D8531762D8531622D8531762DA5
:101010008531762D8531762D8531762D8531762D6C
:101020008531762D8531762D8531762D8531762D5C
:101030008531762D8531762D8531762D8531762D4C
:101040008531762D8531762D8531762D8531762D3C
:101050008531762D8531762D8531762D8531762D2C
:101060008531762D8531762D8531762D8531762D1C
:101070008531762D8531762D8531762D8531762D0C
:101080008531762D8531762D8531762D8531762DFC
:101090008531762D8531762D8531762D8531762DEC
:1010A0008531762D8531762D8531762D8531762DDC
:1010B0008531762D8531762D8531762D8531762DCC
:1010C0008531762D8531762D8531762D8531762DBC
:1010D0008531762D8531762D8531762D8531762DAC
:1010E0008531762D8531762D8531762D8531762D9C
:1010F0008531762D8531762D8531762D8531762D8C
:101100008531762D8531762D8531762D8531762D7B
:101110008531762D8531762D8531762D8531762D6B
:101120008531762D8531762D8531762D8531762D5B
:101130008531762D8531762D8531762D8531762D4B
:101140008531762D8531762D8531762D8531762D3B
:101150008531762D8531762D8531762D8531762D2B
:101160008531762D8531762D8531762D8531762D1B
:101170008531762D8531762D8531762D8531762D0B
:101180008531762D8531762D8531762D8531762DFB
:101190008531762D8531762D8531762D8531762DEB
:1011A0008531762D8531762D8531762D8531762DDB
:1011B0008531762D8531762D8531762D8531762DCB
:1011C0008531762D8531762D8531602D8531602DE7
:1011D0008531602D8031EB288131152981313F29FE
:0C11E00081316C2981319B298131A829C3
:101200000034C23448347C34053409340234433465
:101210000034023401340034C0343234093404342C
:101220000034003401340234023401340034053413
:1012300024340034103401340434243402340234AD
:1012400005342434063400340134053424340134A4
:101250000034013407340534813403340834003455
:101260000234093404340134003402340A340034C2
:10127000003400340734053402340234403400347E
:1012800000340734053482340234403400340034EE
:10129000343403344D34003469340034633400345E
:1012A000723400346F3400346334003468340034F2
:1012B0006934003470340034203400345434003441
:1012C0006534003463340034683400346E340034E0
:1012D0006F3400346C3400346F34003467340034BD
:1012E0007934003420340034493400346E3400340E
:1012F000633400342E340034343403344334003443
:101300004434003443340034203400345234003444
:10131000533400342D340034323400343334003448
:101320003234003420340034453400346D34003419
:10133000753400346C340034613400347434003457
:10134000693400346F3400346E3400342034003497
:1013500044340034653400346D3400346F34003468
:1013600012340134003402340234003400340834BE
:10137000D83404340A3400340034013401340234E3
:10138000003401340434033409340434210068087F
:10139000023A031DCC29EB29E8012300B708031DFD
:1013A000E92920006F0A860008308701810050304B
:1013B000F600F7016F08023E86007608C03F770806
:1013C000C13F6F0886000C3081006F0886008117CE
:1013D0000800B701080020006E0886008701413F21
:1013E000F500F200F301730823002402031DFA291B
:1013F000720823020318FE292308F5007508A302CA
:10140000031CA403F401750874020318142A2008AD
:101410008600013087007408583E8400850100086A
:101420008100A00AF40A032A0330A03E860001309E
:101430008700160001040319412A20006F0A860064
:101440000830870181005830F200F3016F08023E36
:1014500086007208C03F7308C13F6E0886006F089F
:10146000011B392A8600483081006F0886008117E9
:10147000080086000830870181006F088600811708
:10148000080020006F0A8600083087018100503074
:10149000F200F3016F08023E86007208C03F730835
:1014A000C13F6F088600043081006F0886008117F5
:1014B0002300250803195F2A25088A315E2A2300A4
:1014C000A2132100E408031D08008631D22E21005A
:1014D0000E30EC17FB009930FA00FC017A08860008
:1014E0007B0887008101FA0A0319FB0A0230FC0A13
:1014F0007C02031C6E2A2030F0003030F101F20132
:10150000F301F400F501C6228A313D000E17FD01FA
:101510007D08A63E86000130870081017D08A93E36
:10152000860003308101FD0A7D02031C882ACD302C
:10153000F0000130F1000230F201F301F400F50196
:10154000C6228A313D000E1328302100E0002030F1
:101550002000EE00EF0052082200EF00EF08031D0C
:10156000B52A10302100E500080020006F30E001AE
:10157000E00AE101E2000130E300E401E40AE501F0
:101580008531582520302100E50008007108F80059
:101590007008F7000130F4020030F53B740A0319BB
:1015A000750A031908007208F600770886007808A3
:1015B000870076088100F70A0319F80ACA2A200072
:1015C0005008803A031D0800C0302100EC00352B84
:1015D000B0302100EA008930EB001230ED00EE015E
:1015E00008005208031D192B04308400893085003F
:1015F000520884070318850A003F2100EA00893059
:10160000EB00F1006A08F000023E84007108031844
:10161000710A85000008ED006B08F1006A08F0000F
:10162000033E840071080318710A85000008EE006B
:1016300008002100EC010800033052020318192BA6
:101640000130840089308500520884070318850A18
:10165000003F2100EA008930EB006A0884006B0833
:1016600085000008ED00EE01080020005308013A53
:101670000319E82A033A0319F12A013A03191C2B2A
:10168000192B080050081F39013A031D0800500E9D
:10169000890C0339013A031D0800540803197F2BF4
:1016A0005403031D08007F2BBE302100EA000130E7
:1016B000EB000830ED00EE016C142100EC1708007F
:1016C000BE302100EA000130EB005D2B57082300FB
:1016D000A400200056082300A300C630A000A501E6
:1016E000A2170800C6302100EA000130EB000730E5
:1016F000ED00C130EE01EC00080052085D2B5108EE
:10170000840023300402031808008B3104358A3E1C
:10171000820008008B31542B8B31602B8B31892B4D
:101720008B31892B8B31892B8B31892B8B31892BF9
:101730008B31892B8B31892B8B31892B8B31892BE9
:101740008B31892B8B31892B8B31892B8B31892BD9
:101750008B31892B8B31892B8B31892B8B31892BC9
:101760008B31892B8B31892B8B31892B8B31892BB9
:101770008B31892B8B31892B8B31892B8B31892BA9
:101780008B31892B8B31892B8B31892B8B31892B99
:101790008B31892B8B31662B8B31722B8B317D2BCF
:1017A0002000D801D901FD2B2100EC172300380BB4
:1017B000082C2000D814082C2100EC17082C21003C
:1017C000EC172000D41BEB2B54080F39AC3E8600DD
:1017D00001308700F02B54080F39E03E8600870166
:1017E0000108F00086008701811F082C7008860020
:1017F000011D082C0130D800082C50081F3903198E
:10180000D42B013A0319DC2B033A0319DF2B082CE4
:101810002100EC1F08005830EA000230EB016C1484
:10182000ED00080042347534743474346F346E340F
:1018300020347034723465347334733465346434F2
:101840002E340D340A340034640080010131890BD8
:10185000252C0034FE0012001E00FE0B2B2C003441
:101D4A0021006008860000308701011B0130F30082
:101D5A000430E0066508083A031DC02E2000520828
:101D6A007F393D00960016080319BD2E1030BE2E8D
:101D7A0004302100E500680BF52E5830F100F2011D
:101D8A006008023E860087017108C03F7208C13FA1
:101D9A00AE278E3122006C08023A031DDE2E210086
:101DAA006008860004308701810060088600811778
:101DBA000800F308031DEB2E210060088600483056
:101DCA0087018100600886008117080021006008E9
:101DDA0086000830870181006008860081170800A4
:101DEA002300A21F002F25080319FE2E25088E3175
:101DFA00FD2E2300A2132100E80108003D000E1267
:101E0A002100EC1B372F2300A21F172F02302100BD
:101E1A00E8002200E408031D132F67272200E601C9
:101E2A00E501080020006F0A86000830870181005A
:101E3A005030F300F4016F08023E86007308C03F79
:101E4A007408C13F6F0886000C3081006F08860055
:101E5A00811721006008860004308100600886002E
:101E6A00811708002000D01F4C2F2100E801E80A42
:101E7A002200E308031D432F67278E312200E60163
:101E8A00E5012100E408031D08008631D22E023044
:101E9A002100E80020006F0A8600083087018100CF
:101EAA005030F300F4016F08023E86007308C03F09
:101EBA007408C13F6F088600043081006F088600ED
:101ECA008117432FE301E40121006808023A031D48
:101EDA00862F20006F0A860008308701810058305B
:101EEA00F100F2016F08023E86007108C03F7208D5
:101EFA00C13F6F088600483081006F08860081174D
:101F0A0008006E0820005702031D8F2F21006D085C
:101F1A00200056020318982F57082100EE002000CF
:101F2A0056082100ED00AE278E315830F100F2013B
:101F3A0021006008023E860087017108C03F7208CE
:101F4A00C13F60088600483081006008860081171A
:101F5A0008000830F000003021006E020830031932
:101F6A006D020318C52F6D08F0002200EC08031D4E
:101F7A00C12FEC01EC0AC52F6C0BC52F0230EC0007
:101F8A0070082100ED02031CEE03600A8600870137
:101F9A007008810058302200EB0021006C1CE72FEA
:101FAA00FC2F22006B088600870121006A08840042
:101FBA006B08850000088100EA0A0319EB0A22006F
:101FCA00EB0AF003F00803190800D62F22006B0869
:101FDA008600870121006A0884006B0885000008D2
:101FEA008100EA0A0319EB0A2200EB0AF003F0085F
:061FFA0003190800EB2FA3
:020000040001F9
:04000E00A4CFCFDFCD
:00000001FF
